{
  "_format": "hh-sol-artifact-1",
  "contractName": "ChainlinkPriceOracleV2",
  "sourceName": "contracts/oracles/ChainlinkPriceOracleV2.sol",
  "abi": [
    {
      "inputs": [
        {
          "internalType": "address",
          "name": "_admin",
          "type": "address"
        },
        {
          "internalType": "bool",
          "name": "_canAdminOverwrite",
          "type": "bool"
        }
      ],
      "stateMutability": "nonpayable",
      "type": "constructor"
    },
    {
      "anonymous": false,
      "inputs": [
        {
          "indexed": false,
          "internalType": "address",
          "name": "oldAdmin",
          "type": "address"
        },
        {
          "indexed": false,
          "internalType": "address",
          "name": "newAdmin",
          "type": "address"
        }
      ],
      "name": "NewAdmin",
      "type": "event"
    },
    {
      "inputs": [],
      "name": "BTC_ETH_PRICE_FEED",
      "outputs": [
        {
          "internalType": "contract AggregatorV3Interface",
          "name": "",
          "type": "address"
        }
      ],
      "stateMutability": "view",
      "type": "function"
    },
    {
      "inputs": [],
      "name": "ETH_USD_PRICE_FEED",
      "outputs": [
        {
          "internalType": "contract AggregatorV3Interface",
          "name": "",
          "type": "address"
        }
      ],
      "stateMutability": "view",
      "type": "function"
    },
    {
      "inputs": [],
      "name": "admin",
      "outputs": [
        {
          "internalType": "address",
          "name": "",
          "type": "address"
        }
      ],
      "stateMutability": "view",
      "type": "function"
    },
    {
      "inputs": [],
      "name": "canAdminOverwrite",
      "outputs": [
        {
          "internalType": "bool",
          "name": "",
          "type": "bool"
        }
      ],
      "stateMutability": "view",
      "type": "function"
    },
    {
      "inputs": [
        {
          "internalType": "address",
          "name": "newAdmin",
          "type": "address"
        }
      ],
      "name": "changeAdmin",
      "outputs": [],
      "stateMutability": "nonpayable",
      "type": "function"
    },
    {
      "inputs": [
        {
          "internalType": "address",
          "name": "",
          "type": "address"
        }
      ],
      "name": "feedBaseCurrencies",
      "outputs": [
        {
          "internalType": "enum ChainlinkPriceOracleV2.FeedBaseCurrency",
          "name": "",
          "type": "uint8"
        }
      ],
      "stateMutability": "view",
      "type": "function"
    },
    {
      "inputs": [
        {
          "internalType": "contract CToken",
          "name": "cToken",
          "type": "address"
        }
      ],
      "name": "getUnderlyingPrice",
      "outputs": [
        {
          "internalType": "uint256",
          "name": "",
          "type": "uint256"
        }
      ],
      "stateMutability": "view",
      "type": "function"
    },
    {
      "inputs": [
        {
          "internalType": "address",
          "name": "underlying",
          "type": "address"
        }
      ],
      "name": "price",
      "outputs": [
        {
          "internalType": "uint256",
          "name": "",
          "type": "uint256"
        }
      ],
      "stateMutability": "view",
      "type": "function"
    },
    {
      "inputs": [
        {
          "internalType": "address",
          "name": "",
          "type": "address"
        }
      ],
      "name": "priceFeeds",
      "outputs": [
        {
          "internalType": "contract AggregatorV3Interface",
          "name": "",
          "type": "address"
        }
      ],
      "stateMutability": "view",
      "type": "function"
    },
    {
      "inputs": [
        {
          "internalType": "address[]",
          "name": "underlyings",
          "type": "address[]"
        },
        {
          "internalType": "contract AggregatorV3Interface[]",
          "name": "feeds",
          "type": "address[]"
        },
        {
          "internalType": "enum ChainlinkPriceOracleV2.FeedBaseCurrency",
          "name": "baseCurrency",
          "type": "uint8"
        }
      ],
      "name": "setPriceFeeds",
      "outputs": [],
      "stateMutability": "nonpayable",
      "type": "function"
    }
  ],
  "bytecode": "0x608060405234801561001057600080fd5b50604051610df7380380610df78339818101604052604081101561003357600080fd5b508051602090910151600280546001600160a01b0319166001600160a01b039093169290921760ff60a01b1916600160a01b91151591909102179055610d798061007e6000396000f3fe608060405234801561001057600080fd5b506004361061008e5760003560e01c8063656b0fd11461009357806371f3245a146100af5780638f283970146101d95780639dcb511a146101ff578063aea9107814610241578063b0f0abe914610279578063cebae71d14610281578063cf0b0613146102c8578063f851a440146102d0578063fc57d4df146102d8575b600080fd5b61009b6102fe565b604080519115158252519081900360200190f35b6101d7600480360360608110156100c557600080fd5b810190602081018135600160201b8111156100df57600080fd5b8201836020820111156100f157600080fd5b803590602001918460208302840111600160201b8311171561011257600080fd5b9190808060200260200160405190810160405280939291908181526020018383602002808284376000920191909152509295949360208101935035915050600160201b81111561016157600080fd5b82018360208201111561017357600080fd5b803590602001918460208302840111600160201b8311171561019457600080fd5b9190808060200260200160405190810160405280939291908181526020018383602002808284376000920191909152509295505050903560ff16915061030e9050565b005b6101d7600480360360208110156101ef57600080fd5b50356001600160a01b03166104be565b6102256004803603602081101561021557600080fd5b50356001600160a01b031661057b565b604080516001600160a01b039092168252519081900360200190f35b6102676004803603602081101561025757600080fd5b50356001600160a01b0316610596565b60408051918252519081900360200190f35b6102256105a9565b6102a76004803603602081101561029757600080fd5b50356001600160a01b03166105c1565b604051808260028111156102b757fe5b815260200191505060405180910390f35b6102256105d6565b6102256105ee565b610267600480360360208110156102ee57600080fd5b50356001600160a01b03166105fd565b600254600160a01b900460ff1681565b6002546001600160a01b03163314610368576040805162461bcd60e51b815260206004820152601860248201527729b2b73232b91034b9903737ba103a34329030b236b4b71760411b604482015290519081900360640190fd5b6000835111801561037a575081518351145b6103b55760405162461bcd60e51b8152600401808060200182810382526038815260200180610c866038913960400191505060405180910390fd5b60005b83518110156104b85760008482815181106103cf57fe5b60200260200101519050600260149054906101000a900460ff16610444576001600160a01b0381811660009081526020819052604090205416156104445760405162461bcd60e51b8152600401808060200182810382526050815260200180610d1d6050913960600191505060405180910390fd5b83828151811061045057fe5b6020908102919091018101516001600160a01b038381166000908152808452604080822080546001600160a01b031916939094169290921790925560019283905290208054859260ff19909116908360028111156104aa57fe5b0217905550506001016103b8565b50505050565b6002546001600160a01b03163314610518576040805162461bcd60e51b815260206004820152601860248201527729b2b73232b91034b9903737ba103a34329030b236b4b71760411b604482015290519081900360640190fd5b600280546001600160a01b038381166001600160a01b0319831681179093556040805191909216808252602082019390935281517ff9ffabca9c8276e99321725bcb43fb076a6c66a54b7f21c4e8146d8519b417dc929181900390910190a15050565b6000602081905290815260409020546001600160a01b031681565b60006105a1826107c9565b90505b919050565b73f9680d99d6c9589e2a93a78a04a279e50920594581565b60016020526000908152604090205460ff1681565b73deb288f737066589598e9214e782fa5a8ed689e881565b6002546001600160a01b031681565b6000816001600160a01b031663ac784ddc6040518163ffffffff1660e01b815260040160206040518083038186803b15801561063857600080fd5b505afa15801561064c573d6000803e3d6000fd5b505050506040513d602081101561066257600080fd5b5051156106ae576040805162461bcd60e51b815260206004820152601560248201527410d15d1a195c881a5cc81d5b9cdd5c1c1bdc9d1959605a1b604482015290519081900360640190fd5b6000826001600160a01b0316636f307dc36040518163ffffffff1660e01b815260040160206040518083038186803b1580156106e957600080fd5b505afa1580156106fd573d6000803e3d6000fd5b505050506040513d602081101561071357600080fd5b505190506000610722826107c9565b90506000826001600160a01b031663313ce5676040518163ffffffff1660e01b815260040160206040518083038186803b15801561075f57600080fd5b505afa158015610773573d6000803e3d6000fd5b505050506040513d602081101561078957600080fd5b505160ff16905060128111156107af576107aa826011198301600a0a610bbf565b6107c0565b6107c0826012839003600a0a610c25565b95945050505050565b6000737ceb23fd6bc0add59e62ac25578270cff1b9f6196001600160a01b03831614156107ff5750670de0b6b3a76400006105a4565b730d500b1d8e8ef31e21c99d1db9a6444d3adf12706001600160a01b038316141561082957600091505b6001600160a01b0380831660009081526020819052604090205416806108805760405162461bcd60e51b815260040180806020018281038252603e815260200180610cbe603e913960400191505060405180910390fd5b6001600160a01b03831660009081526001602052604081205460ff16908160028111156108a957fe5b1415610937576000826001600160a01b031663feaf968c6040518163ffffffff1660e01b815260040160a06040518083038186803b1580156108ea57600080fd5b505afa1580156108fe573d6000803e3d6000fd5b505050506040513d60a081101561091457600080fd5b50602001519050600081121561092b57600061092d565b805b93505050506105a4565b600181600281111561094557fe5b1415610a8257600073f9680d99d6c9589e2a93a78a04a279e5092059456001600160a01b031663feaf968c6040518163ffffffff1660e01b815260040160a06040518083038186803b15801561099a57600080fd5b505afa1580156109ae573d6000803e3d6000fd5b505050506040513d60a08110156109c457600080fd5b50602001519050600081136109df57600093505050506105a4565b6000836001600160a01b031663feaf968c6040518163ffffffff1660e01b815260040160a06040518083038186803b158015610a1a57600080fd5b505afa158015610a2e573d6000803e3d6000fd5b505050506040513d60a0811015610a4457600080fd5b506020015190506000811215610a5b576000610a77565b610a7782610a7183670de0b6b3a7640000610c25565b90610bbf565b9450505050506105a4565b6002816002811115610a9057fe5b1415610bb857600073deb288f737066589598e9214e782fa5a8ed689e86001600160a01b031663feaf968c6040518163ffffffff1660e01b815260040160a06040518083038186803b158015610ae557600080fd5b505afa158015610af9573d6000803e3d6000fd5b505050506040513d60a0811015610b0f57600080fd5b5060200151905060008113610b2a57600093505050506105a4565b6000836001600160a01b031663feaf968c6040518163ffffffff1660e01b815260040160a06040518083038186803b158015610b6557600080fd5b505afa158015610b79573d6000803e3d6000fd5b505050506040513d60a0811015610b8f57600080fd5b506020015190506000811215610ba6576000610a77565b610a776305f5e100610a718385610c25565b5050919050565b6000808211610c12576040805162461bcd60e51b815260206004820152601a602482015279536166654d6174683a206469766973696f6e206279207a65726f60301b604482015290519081900360640190fd5b818381610c1b57fe5b0490505b92915050565b600082610c3457506000610c1f565b82820282848281610c4157fe5b0414610c7e5760405162461bcd60e51b8152600401808060200182810382526021815260200180610cfc6021913960400191505060405180910390fd5b939250505056fe4c656e67746873206f6620626f746820617272617973206d75737420626520657175616c20616e642067726561746572207468616e20302e4e6f20436861696e6c696e6b207072696365206665656420666f756e6420666f72207468697320756e6465726c79696e6720455243323020746f6b656e2e536166654d6174683a206d756c7469706c69636174696f6e206f766572666c6f7741646d696e2063616e6e6f74206f7665727772697465206578697374696e672061737369676e6d656e7473206f6620707269636520666565647320746f20756e6465726c79696e6720746f6b656e732ea164736f6c634300060c000a",
  "linkReferences": {},
  "deployedLinkReferences": {}
}