{
  "_format": "hh-sol-artifact-1",
  "contractName": "MasterPriceOracle",
  "sourceName": "contracts/oracles/MasterPriceOracle.sol",
  "abi": [
    {
      "inputs": [
        {
          "internalType": "address[]",
          "name": "underlyings",
          "type": "address[]"
        },
        {
          "internalType": "contract PriceOracle[]",
          "name": "_oracles",
          "type": "address[]"
        },
        {
          "internalType": "address",
          "name": "_admin",
          "type": "address"
        },
        {
          "internalType": "bool",
          "name": "_canAdminOverwrite",
          "type": "bool"
        }
      ],
      "stateMutability": "nonpayable",
      "type": "constructor"
    },
    {
      "anonymous": false,
      "inputs": [
        {
          "indexed": false,
          "internalType": "address",
          "name": "oldAdmin",
          "type": "address"
        },
        {
          "indexed": false,
          "internalType": "address",
          "name": "newAdmin",
          "type": "address"
        }
      ],
      "name": "NewAdmin",
      "type": "event"
    },
    {
      "inputs": [
        {
          "internalType": "address[]",
          "name": "underlyings",
          "type": "address[]"
        },
        {
          "internalType": "contract PriceOracle[]",
          "name": "_oracles",
          "type": "address[]"
        }
      ],
      "name": "add",
      "outputs": [],
      "stateMutability": "nonpayable",
      "type": "function"
    },
    {
      "inputs": [],
      "name": "admin",
      "outputs": [
        {
          "internalType": "address",
          "name": "",
          "type": "address"
        }
      ],
      "stateMutability": "view",
      "type": "function"
    },
    {
      "inputs": [],
      "name": "canAdminOverwrite",
      "outputs": [
        {
          "internalType": "bool",
          "name": "",
          "type": "bool"
        }
      ],
      "stateMutability": "view",
      "type": "function"
    },
    {
      "inputs": [
        {
          "internalType": "address",
          "name": "newAdmin",
          "type": "address"
        }
      ],
      "name": "changeAdmin",
      "outputs": [],
      "stateMutability": "nonpayable",
      "type": "function"
    },
    {
      "inputs": [
        {
          "internalType": "contract CToken",
          "name": "cToken",
          "type": "address"
        }
      ],
      "name": "getUnderlyingPrice",
      "outputs": [
        {
          "internalType": "uint256",
          "name": "",
          "type": "uint256"
        }
      ],
      "stateMutability": "view",
      "type": "function"
    },
    {
      "inputs": [
        {
          "internalType": "address",
          "name": "",
          "type": "address"
        }
      ],
      "name": "oracles",
      "outputs": [
        {
          "internalType": "contract PriceOracle",
          "name": "",
          "type": "address"
        }
      ],
      "stateMutability": "view",
      "type": "function"
    },
    {
      "inputs": [
        {
          "internalType": "address",
          "name": "underlying",
          "type": "address"
        }
      ],
      "name": "price",
      "outputs": [
        {
          "internalType": "uint256",
          "name": "",
          "type": "uint256"
        }
      ],
      "stateMutability": "view",
      "type": "function"
    }
  ],
  "bytecode": "0x608060405234801561001057600080fd5b50604051610b30380380610b308339818101604052608081101561003357600080fd5b810190808051604051939291908464010000000082111561005357600080fd5b90830190602082018581111561006857600080fd5b825186602082028301116401000000008211171561008557600080fd5b82525081516020918201928201910280838360005b838110156100b257818101518382015260200161009a565b50505050905001604052602001805160405193929190846401000000008211156100db57600080fd5b9083019060208201858111156100f057600080fd5b825186602082028301116401000000008211171561010d57600080fd5b82525081516020918201928201910280838360005b8381101561013a578181015183820152602001610122565b505050509190910160409081526020830151920151865192945092505015801590610166575082518451145b6101a15760405162461bcd60e51b8152600401808060200182810382526038815260200180610af86038913960400191505060405180910390fd5b60005b8451811015610214578381815181106101b957fe5b60200260200101516000808784815181106101d057fe5b6020908102919091018101516001600160a01b0390811683529082019290925260400160002080546001600160a01b031916929091169190911790556001016101a4565b5060018054911515600160a01b0260ff60a01b196001600160a01b039094166001600160a01b03199093169290921792909216179055505061089d8061025b6000396000f3fe608060405234801561001057600080fd5b506004361061006d5760003560e01c8063656b0fd1146100725780638f2839701461008e5780639c9192c6146100b6578063addd509914610174578063aea91078146101b6578063f851a440146101ee578063fc57d4df146101f6575b600080fd5b61007a61021c565b604080519115158252519081900360200190f35b6100b4600480360360208110156100a457600080fd5b50356001600160a01b031661022c565b005b6100b4600480360360408110156100cc57600080fd5b810190602081018135600160201b8111156100e657600080fd5b8201836020820111156100f857600080fd5b803590602001918460208302840111600160201b8311171561011957600080fd5b919390929091602081019035600160201b81111561013657600080fd5b82018360208201111561014857600080fd5b803590602001918460208302840111600160201b8311171561016957600080fd5b5090925090506102e9565b61019a6004803603602081101561018a57600080fd5b50356001600160a01b0316610497565b604080516001600160a01b039092168252519081900360200190f35b6101dc600480360360208110156101cc57600080fd5b50356001600160a01b03166104b2565b60408051918252519081900360200190f35b61019a6105ca565b6101dc6004803603602081101561020c57600080fd5b50356001600160a01b03166105d9565b600154600160a01b900460ff1681565b6001546001600160a01b03163314610286576040805162461bcd60e51b815260206004820152601860248201527729b2b73232b91034b9903737ba103a34329030b236b4b71760411b604482015290519081900360640190fd5b600180546001600160a01b038381166001600160a01b0319831681179093556040805191909216808252602082019390935281517ff9ffabca9c8276e99321725bcb43fb076a6c66a54b7f21c4e8146d8519b417dc929181900390910190a15050565b6001546001600160a01b03163314610343576040805162461bcd60e51b815260206004820152601860248201527729b2b73232b91034b9903737ba103a34329030b236b4b71760411b604482015290519081900360640190fd5b821580159061035157508281145b61038c5760405162461bcd60e51b81526004018080602001828103825260388152602001806108206038913960400191505060405180910390fd5b60005b8381101561049057600154600160a01b900460ff1661041f57600080808787858181106103b857fe5b6001600160a01b0360209182029390930135831684528301939093526040909101600020541691909114905061041f5760405162461bcd60e51b815260040180806020018281038252604c8152602001806107d4604c913960600191505060405180910390fd5b82828281811061042b57fe5b905060200201356001600160a01b031660008087878581811061044a57fe5b6001600160a01b03602091820293909301358316845283019390935260409091016000208054939091166001600160a01b0319909316929092179091555060010161038f565b5050505050565b6000602081905290815260409020546001600160a01b031681565b6000737ceb23fd6bc0add59e62ac25578270cff1b9f6196001600160a01b03831614156104e85750670de0b6b3a76400006105c5565b6001600160a01b038281166000908152602081905260409020541661053e5760405162461bcd60e51b81526004018080602001828103825260398152602001806108586039913960400191505060405180910390fd5b6001600160a01b03808316600081815260208181526040918290205482516315d5220f60e31b815260048101949094529151919093169263aea910789260248082019391829003018186803b15801561059657600080fd5b505afa1580156105aa573d6000803e3d6000fd5b505050506040513d60208110156105c057600080fd5b505190505b919050565b6001546001600160a01b031681565b6000816001600160a01b031663ac784ddc6040518163ffffffff1660e01b815260040160206040518083038186803b15801561061457600080fd5b505afa158015610628573d6000803e3d6000fd5b505050506040513d602081101561063e57600080fd5b5051156106545750670de0b6b3a76400006105c5565b6000826001600160a01b0316636f307dc36040518163ffffffff1660e01b815260040160206040518083038186803b15801561068f57600080fd5b505afa1580156106a3573d6000803e3d6000fd5b505050506040513d60208110156106b957600080fd5b50519050737ceb23fd6bc0add59e62ac25578270cff1b9f6196001600160a01b03821614156106f357670de0b6b3a76400009150506105c5565b6001600160a01b03818116600090815260208190526040902054166107495760405162461bcd60e51b81526004018080602001828103825260398152602001806108586039913960400191505060405180910390fd5b6001600160a01b038082166000908152602081815260409182902054825163fc57d4df60e01b81528785166004820152925193169263fc57d4df926024808201939291829003018186803b1580156107a057600080fd5b505afa1580156107b4573d6000803e3d6000fd5b505050506040513d60208110156107ca57600080fd5b5051939250505056fe41646d696e2063616e6e6f74206f7665727772697465206578697374696e672061737369676e6d656e7473206f66206f7261636c657320746f20756e6465726c79696e6720746f6b656e732e4c656e67746873206f6620626f746820617272617973206d75737420626520657175616c20616e642067726561746572207468616e20302e5072696365206f7261636c65206e6f7420666f756e6420666f72207468697320756e6465726c79696e6720746f6b656e20616464726573732ea164736f6c634300060c000a4c656e67746873206f6620626f746820617272617973206d75737420626520657175616c20616e642067726561746572207468616e20302e",
  "linkReferences": {},
  "deployedLinkReferences": {}
}