{
  "_format": "hh-sol-artifact-1",
  "contractName": "PreferredPriceOracle",
  "sourceName": "contracts/oracles/PreferredPriceOracle.sol",
  "abi": [
    {
      "inputs": [
        {
          "internalType": "contract ChainlinkPriceOracleV2",
          "name": "_chainlinkOracleV2",
          "type": "address"
        },
        {
          "internalType": "contract BasePriceOracle",
          "name": "_secondaryOracle",
          "type": "address"
        }
      ],
      "stateMutability": "nonpayable",
      "type": "constructor"
    },
    {
      "inputs": [],
      "name": "chainlinkOracleV2",
      "outputs": [
        {
          "internalType": "contract ChainlinkPriceOracleV2",
          "name": "",
          "type": "address"
        }
      ],
      "stateMutability": "view",
      "type": "function"
    },
    {
      "inputs": [
        {
          "internalType": "contract CToken",
          "name": "cToken",
          "type": "address"
        }
      ],
      "name": "getUnderlyingPrice",
      "outputs": [
        {
          "internalType": "uint256",
          "name": "",
          "type": "uint256"
        }
      ],
      "stateMutability": "view",
      "type": "function"
    },
    {
      "inputs": [
        {
          "internalType": "address",
          "name": "underlying",
          "type": "address"
        }
      ],
      "name": "price",
      "outputs": [
        {
          "internalType": "uint256",
          "name": "",
          "type": "uint256"
        }
      ],
      "stateMutability": "view",
      "type": "function"
    },
    {
      "inputs": [],
      "name": "secondaryOracle",
      "outputs": [
        {
          "internalType": "contract BasePriceOracle",
          "name": "",
          "type": "address"
        }
      ],
      "stateMutability": "view",
      "type": "function"
    }
  ],
  "bytecode": "0x608060405234801561001057600080fd5b506040516106783803806106788339818101604052604081101561003357600080fd5b5080516020909101516001600160a01b038216610097576040805162461bcd60e51b815260206004820152601f60248201527f436861696e6c696e6b50726963654f7261636c655632206e6f74207365742e00604482015290519081900360640190fd5b6001600160a01b0381166100f2576040805162461bcd60e51b815260206004820152601f60248201527f5365636f6e64617279207072696365206f7261636c65206e6f74207365742e00604482015290519081900360640190fd5b600080546001600160a01b039384166001600160a01b0319918216179091556001805492909316911617905561054b8061012d6000396000f3fe608060405234801561001057600080fd5b506004361061004c5760003560e01c8063329d460914610051578063aea9107814610075578063e3cb8649146100ad578063fc57d4df146100b5575b600080fd5b6100596100db565b604080516001600160a01b039092168252519081900360200190f35b61009b6004803603602081101561008b57600080fd5b50356001600160a01b03166100ea565b60408051918252519081900360200190f35b6100596100fd565b61009b600480360360208110156100cb57600080fd5b50356001600160a01b031661010c565b6001546001600160a01b031681565b60006100f58261029a565b90505b919050565b6000546001600160a01b031681565b600080826001600160a01b031663ac784ddc6040518163ffffffff1660e01b815260040160206040518083038186803b15801561014857600080fd5b505afa15801561015c573d6000803e3d6000fd5b505050506040513d602081101561017257600080fd5b50516101e257826001600160a01b0316636f307dc36040518163ffffffff1660e01b815260040160206040518083038186803b1580156101b157600080fd5b505afa1580156101c5573d6000803e3d6000fd5b505050506040513d60208110156101db57600080fd5b50516101e5565b60005b905060006001600160a01b0382161561026557816001600160a01b031663313ce5676040518163ffffffff1660e01b815260040160206040518083038186803b15801561023157600080fd5b505afa158015610245573d6000803e3d6000fd5b505050506040513d602081101561025b57600080fd5b505160ff16610268565b60125b905061029281600a0a61028c670de0b6b3a76400006102868661029a565b90610457565b906104b9565b949350505050565b6000737ceb23fd6bc0add59e62ac25578270cff1b9f6196001600160a01b03831614156102d05750670de0b6b3a76400006100f8565b6000805460408051634ee5a88d60e11b81526001600160a01b03868116600483015291519190921691639dcb511a916024808301926020929190829003018186803b15801561031e57600080fd5b505afa158015610332573d6000803e3d6000fd5b505050506040513d602081101561034857600080fd5b50516001600160a01b0316146103d857600054604080516315d5220f60e31b81526001600160a01b0385811660048301529151919092169163aea91078916024808301926020929190829003018186803b1580156103a557600080fd5b505afa1580156103b9573d6000803e3d6000fd5b505050506040513d60208110156103cf57600080fd5b505190506100f8565b600154604080516315d5220f60e31b81526001600160a01b0385811660048301529151919092169163aea91078916024808301926020929190829003018186803b15801561042557600080fd5b505afa158015610439573d6000803e3d6000fd5b505050506040513d602081101561044f57600080fd5b505192915050565b600082610466575060006104b3565b8282028284828161047357fe5b04146104b05760405162461bcd60e51b815260040180806020018281038252602181526020018061051e6021913960400191505060405180910390fd5b90505b92915050565b600080821161050c576040805162461bcd60e51b815260206004820152601a602482015279536166654d6174683a206469766973696f6e206279207a65726f60301b604482015290519081900360640190fd5b81838161051557fe5b04939250505056fe536166654d6174683a206d756c7469706c69636174696f6e206f766572666c6f77a164736f6c634300060c000a",
  "linkReferences": {},
  "deployedLinkReferences": {}
}