{
  "_format": "hh-sol-artifact-1",
  "contractName": "UniswapTwapPriceOracle",
  "sourceName": "contracts/oracles/UniswapTwapPriceOracle.sol",
  "abi": [
    {
      "inputs": [
        {
          "internalType": "address",
          "name": "_rootOracle",
          "type": "address"
        },
        {
          "internalType": "address",
          "name": "_uniswapV2Factory",
          "type": "address"
        }
      ],
      "stateMutability": "nonpayable",
      "type": "constructor"
    },
    {
      "inputs": [],
      "name": "WETH",
      "outputs": [
        {
          "internalType": "address",
          "name": "",
          "type": "address"
        }
      ],
      "stateMutability": "view",
      "type": "function"
    },
    {
      "inputs": [
        {
          "internalType": "contract CToken",
          "name": "cToken",
          "type": "address"
        }
      ],
      "name": "getUnderlyingPrice",
      "outputs": [
        {
          "internalType": "uint256",
          "name": "",
          "type": "uint256"
        }
      ],
      "stateMutability": "view",
      "type": "function"
    },
    {
      "inputs": [
        {
          "internalType": "address",
          "name": "underlying",
          "type": "address"
        }
      ],
      "name": "price",
      "outputs": [
        {
          "internalType": "uint256",
          "name": "",
          "type": "uint256"
        }
      ],
      "stateMutability": "view",
      "type": "function"
    },
    {
      "inputs": [],
      "name": "rootOracle",
      "outputs": [
        {
          "internalType": "contract UniswapTwapPriceOracleRoot",
          "name": "",
          "type": "address"
        }
      ],
      "stateMutability": "view",
      "type": "function"
    },
    {
      "inputs": [],
      "name": "uniswapV2Factory",
      "outputs": [
        {
          "internalType": "address",
          "name": "",
          "type": "address"
        }
      ],
      "stateMutability": "view",
      "type": "function"
    }
  ],
  "bytecode": "0x60c060405234801561001057600080fd5b506040516105a13803806105a18339818101604052604081101561003357600080fd5b5080516020909101516001600160601b0319606092831b8116608052911b1660a05260805160601c60a05160601c61051a6100876000398060f0528061038852508061013f5280610358525061051a6000f3fe608060405234801561001057600080fd5b50600436106100575760003560e01c806359d0f7131461005c578063ad5c464814610080578063aea9107814610088578063e3cb23a5146100c0578063fc57d4df146100c8575b600080fd5b6100646100ee565b604080516001600160a01b039092168252519081900360200190f35b610064610112565b6100ae6004803603602081101561009e57600080fd5b50356001600160a01b031661012a565b60408051918252519081900360200190f35b61006461013d565b6100ae600480360360208110156100de57600080fd5b50356001600160a01b0316610161565b7f000000000000000000000000000000000000000000000000000000000000000081565b737ceb23fd6bc0add59e62ac25578270cff1b9f61981565b600061013582610320565b90505b919050565b7f000000000000000000000000000000000000000000000000000000000000000081565b6000816001600160a01b031663ac784ddc6040518163ffffffff1660e01b815260040160206040518083038186803b15801561019c57600080fd5b505afa1580156101b0573d6000803e3d6000fd5b505050506040513d60208110156101c657600080fd5b505115610212576040805162461bcd60e51b815260206004820152601560248201527410d15d1a195c881a5cc81d5b9cdd5c1c1bdc9d1959605a1b604482015290519081900360640190fd5b6000826001600160a01b0316636f307dc36040518163ffffffff1660e01b815260040160206040518083038186803b15801561024d57600080fd5b505afa158015610261573d6000803e3d6000fd5b505050506040513d602081101561027757600080fd5b50516040805163313ce56760e01b815290519192506000916001600160a01b0384169163313ce567916004808301926020929190829003018186803b1580156102bf57600080fd5b505afa1580156102d3573d6000803e3d6000fd5b505050506040513d60208110156102e957600080fd5b505160ff16600a0a905061031881610312670de0b6b3a764000061030c86610320565b90610426565b90610488565b949350505050565b60006001600160a01b038216737ceb23fd6bc0add59e62ac25578270cff1b9f61914156103565750670de0b6b3a7640000610138565b7f00000000000000000000000000000000000000000000000000000000000000006001600160a01b0316632b00490d837f00000000000000000000000000000000000000000000000000000000000000006040518363ffffffff1660e01b815260040180836001600160a01b03168152602001826001600160a01b031681526020019250505060206040518083038186803b1580156103f457600080fd5b505afa158015610408573d6000803e3d6000fd5b505050506040513d602081101561041e57600080fd5b505192915050565b60008261043557506000610482565b8282028284828161044257fe5b041461047f5760405162461bcd60e51b81526004018080602001828103825260218152602001806104ed6021913960400191505060405180910390fd5b90505b92915050565b60008082116104db576040805162461bcd60e51b815260206004820152601a602482015279536166654d6174683a206469766973696f6e206279207a65726f60301b604482015290519081900360640190fd5b8183816104e457fe5b04939250505056fe536166654d6174683a206d756c7469706c69636174696f6e206f766572666c6f77a164736f6c634300060c000a",
  "linkReferences": {},
  "deployedLinkReferences": {}
}